S00E000054696E794F532E73726563D0
S11300000C9434000C9451000C9451000C94510045
S11300100C9451000C9451000C9451000C94510018
S11300200C9451000C9451000C9451000C94510008
S11300300C9451000C9451000C9451000C945100F8
S11300400C9451000C9451000C9451000C945100E8
S11300500C9451000C9451000C9451000C945100D8
S11300600C9451000C94510011241FBECFEFD8E022
S1130070DEBFCDBF13E0A0E0B1E0EAECF7E002C0E0
S113008005900D92AE38B107D9F723E0AEE8B3E09E
S113009001C01D92AA39B207E1F70E94B4030C947F
S11300A0E3030C94000007E004B900E005B901B9CA
S11300B010E007E61093C5000093C40008E1009324
S11300C0C10006E00093C20007E800937A0000E450
S11300D000937C0000E000937B000EEF00937E0011
S11300E00FEF00937F0008950E94B1000FEF0AB94B
S11300F000918E030BB904E005B90E94860000E06C
S113010005B90E9486000E94AB0008950AEF1FEF14
S11301101A95F1F70A95D9F708950E94B1000FEFE7
S11301200AB900918E030BB906E005B90E94860056
S113013000E005B90E9486000E94AB0008950E9469
S1130140B10000E00AB945B80BB100938E0305B8BD
S11301500E94AB00089502E00AB908E10093C100CF
S1130160089500E00093C10008950091C00007FFC6
S113017008950091C600F9CF0091C00007FFFCCF9D
S11301800091C6000093900308950091C00007FDFC
S11301900093900308951091C00015FFFCCF0091C7
S11301A090030093C600089507EC00937A00009131
S11301B07A0006FDFCCF009178000093970300912C
S11301C0790000938F030895F999FECF20E01091F0
S11301D091030091900322BD11BD00BDFA9AF99AD2
S11301E00895F999FECF20E01091910300E022BD1B
S11301F011BDF89A00B50093900308950E94B100D0
S11302000091C20010918E032FEF012B12270123BE
S11302100093C2000E94AB0008950E94B1000091B7
S1130220C1001091C20020919003047023FD04606A
S113023020918E0312701270120F0093C10010935C
S1130240C2000E94AB0008950E94B1000091900387
S11302501091C200000F000F000F1870100F1093C0
S1130260C2000E94AB0008950E94B1000091C50035
S11302701091900320918E032295322F307F0F70BE
S1130280030F2F70120F0093C5001093C4000E9437
S1130290AB000895CF93DF93EC019881992341F04B
S11302A02196909390030E94CB0099919111F9CFDC
S11302B0DF91CF910895CF93DF93EC019881992337
S11302C041F0219690938E030E948D009991911193
S11302D0F9CFDF91CF91089581E793E00E944A011D
S11302E08AE393E00E944A0188E093E00E944A0175
S11302F0089582E193E00E944A010895CF93DF9329
S113030081E080938E030E94740088E380938E03BF
S11303100E94740088E080938E030E94740082E03F
S113032080938E030E94740086E080938E030E9463
S113033074008FE080938E030E94740080E091E04B
S11303400E945B011092900388E180938E030E94C7
S1130350C5000E947400CEE0D0E00E948600219780
S1130360E1F70E94C5000E94B500809190038823A4
S113037071F3DF91CF910895CF93DF9385E591E0F9
S11303800E944A01C2E9D3E08EE2898380E28B8332
S11303901C820E94D40080918F03805D809390031F
S11303A00E94CB0080919703809390030E94CB001E
S11303B020918F0330E0322F222780919703280F5A
S11303C0311DC901880F991F220F331F220F331FBC
S11303D0220F331F820F931FEEEFF7E0BF010E943D
S11303E0BB03262F30E3360F3883AC01440F551F6F
S11303F0880F991F880F991F880F991F840F951FC5
S1130400BF010E94BB0330E3360F3A8390939903F4
S1130410809398038F3F93401CF06F5C6093940328
S1130420809194038A3331F4E2E9F3E080E3828338
S11304302F5C208382E993E00E944A0182EE92E0DD
S11304400E944A01DF91CF91089589E091E00E94D2
S11304504A01109290030E94BC008091900388236B
S1130460D1F3833331F482E0809390030E9424011A
S1130470089589EE92E00E944A01089582E193E092
S11304800E944A01109290030E94BC008091900344
S11304908823D1F30E94CB0080919003853679F0B4
S11304A018F4813649F011C08C3619F0853751F0B3
S11304B00CC00E947E0108950E94BC0108950E9410
S11304C0C10208950E948C03089589EE92E00E946F
S11304D04A010E94790108958091900390ED980F4C
S11304E09A3018F49093900303C08154809390033E
S11304F080919003803158F0805280939003803132
S113050030F089EE92E00E944A010E943E02089572
S113051081E291E00E944A01109290030E94BC0083
S1130520809190038823D1F30E94CB000E946C0237
S11305308091900380938E03109290030E94BC00DC
S1130540809190038823D1F30E94CB000E946C0217
S113055090918E038091900320E1929F800D11244D
S113056080938E03109290030E94BC0080919003AC
S11305708823D1F30E94CB000E946C020E943401B4
S1130580089588E591E00E944A0181E791E00E9484
S11305904A01109290030E94BC008091900388232A
S11305A0D1F30E94CB000E946C028091900382954B
S11305B0807F8093910386E991E00E944A01109222
S11305C090030E94BC00809190038823D1F30E9481
S11305D0CB000E946C029091910380919003890F4B
S11305E0809391038AEB91E00E944A011092900358
S11305F00E94BC00809190038823D1F38C3699F03B
S11306008337B1F482EE91E00E944A011092900384
S11306100E94BC00809190038823D1F30E94E400DF
S11306200E94CB0008950E94F1000E94CB0008951F
S113063089EE92E00E944A010E943E02089587E0FA
S113064092E00E944A01109290030E94BC008091A3
S113065090038823D1F38733A9F028F48533D1F0AC
S11306608633A1F01AC0883331F08933B1F486E0BF
S113067080938E0318C086E080938E0387E3809373
S1130680900311C084E080938E030DC082E08093B8
S11306908E0309C010928E0306C089EE92E00E9478
S11306A04A010E943E020E940D0108958FE392E0E8
S11306B00E944A01109290030E94BC008091900312
S11306C08823D1F3853669F08F36A9F08436E9F4AE
S11306D010928E030E94FE008CE592E00E944A0173
S11306E0089580E180938E030E94FE0080E792E0EB
S11306F00E944A01089588E180938E030E94FE00BF
S113070087E892E00E944A0108958DE992E00E94F0
S11307104A010E943E02089587EB92E00E944A013A
S1130720109290030E94BC00809190038823D1F31F
S1130730843661F018F4823631F011C0803749F004
S1130740833751F00CC00E94880208950E941F0351
S113075008950E94560308950E942502089589EE83
S113076092E00E944A0108950E9453000E946C0185
S11307700E943E02FDCF97FB072E16F4009407D08B
S113078077FD09D00E94CF0307FC05D03EF4909575
S113079081959F4F0895709561957F4F0895AA1B89
S11307A0BB1B51E107C0AA1FBB1FA617B70710F058
S11307B0A61BB70B881F991F5A95A9F7809590958A
S10D07C0BC01CD010895F894FFCFA9
S11307CA5465616D2054656E000D0A283129206232
S11307DA6974206F722028322920626974730D0AA1
S11307EA000D0A20456E746572207468726565206E
S11307FA68657861646563696D616C2076616C759E
S113080A657320666F72207468652062617564205E
S113081A726174652E0D0A000D0A454550524F4DFA
S113082A20577269746520616E6420526561642E72
S113083A000D0A4869676865722034206269747316
S113084A206F66206164647265737320696E206820
S113085A65782E0D0A000D0A4C6F776572203420D4
S113086A62697473206F66206164647265737320AD
S113087A696E206865782E0D0A000D0A28532961CD
S113088A7665206F7220284C296F61642066726F26
S113089A6D207468697320616464726573732E0DC4
S11308AA0A000D0A57686174206368617220776FC1
S11308BA756C6420796F75206C696B6520746F2080
S11308CA736176650D0A000D0A2835292062697458
S11308DA732C2028362920626974732C202837291E
S11308EA20626974732C2028382920626974732C55
S11308FA206F722028392920626974730D0A000D49
S113090A0A284429697361626C652C202845297672
S113091A656E2C20284F2964640D0A000D0A506163
S113092A726974792044697361626C65640D0A00A2
S113093A0D0A5061726974792073657420746F208A
S113094A4576656E0D0A000D0A5061726974792044
S113095A73657420746F204F64640D0A000D0A5481
S113096A6869732073686F756C646E277420686194
S113097A7070656E0D0A000D0A4D656E753A202871
S113098A42296175642C202844296174612C202829
S113099A502961726974792C20285329746F700D57
S11309AA0A00566F6C74730D000D0A496E76616CF9
S11309BA696420436F6D6D616E64205472792041BD
S11309CA6761696E2E2E2E000D0A52656164793AAA
S11309DA20000D0A4D656E753A20284C2943442C93
S11309EA2028412943442C202845294550524F4D5B
S11309FA202855294152540D0A000D0A62792045CE
S1130A0A7567656E6520526F636B657920436F70F5
S1130A1A79726967687420323031382C20416C6CE1
S1130A2A20526967687473205265736572766564C7
S1130A3A000D0A4543452D3431322041544D656732
S1110A4A61333238502054696E79204F5300C6
S9030000FC
